:100000000A308A00FB2A0000FF00030E8301A100D2
:100010000A08A0008A010408A2007708A300780853
:10002000A4007908A5007A08A60003170D08031399
:10003000A70003170F080313A80003170C080313E6
:10004000A90003170E080313AA00831383120B1EC3
:100050002B288B184C28220884002308F70024083A
:10006000F8002508F9002608FA00270803178D0074
:100070000313280803178F000313290803178C00A4
:1000800003132A0803178E00031320088A00210E89
:100090008300FF0E7F0E09008A110A124F288B1071
:1000A000AE08031D582883160512831205125C281A
:1000B00083160512831205168B108A110A122B283B
:1000C000D237EF36311DA519EC3AA012E32100001A
:1000D000D237EF36311D2519EC3AA012E321000189
:1000E000D237EF36311D2519EC3AA012E321000179
:1000F000D237EF36311D2519EC3AA012E321000169
:10010000693AA739A0316F366400693AA7392037B8
:100110006F39ED306C00693AA73920346F3A00002E
:10012000D237EF36311D2000D237EF36321D200096
:10013000D237EF36331D2000D237EF36341D200082
:1001400052242010201DA01233173133A012251085
:1001500020108027693AA7392036EF3B802AC43027
:10016000F2350001D33A6E3779006F38E131693AE0
:100170007910BA12331731332010A51200004D3018
:100180008400831300080319D2281930F800F701FE
:10019000F70BC828F80BC728F030F700F70BCE286C
:1001A000800BC52808005418D7280711D828071530
:1001B0002B112B08831687008312D418E12887118E
:1001C000E2288715AB112B08831687008312541978
:1001D000EB280712EC2807162B122B088316870032
:1001E0008312D419F5288712F6288716AB122B082C
:1001F00083168700000083128714AB102B08831628
:1002000087000D30F700F70B032983128710AB101E
:100210002B088316870083120800D5012B152B08A5
:10022000831687000030831207190130D504AB15FF
:100230002B08831687000030831287190130F700DE
:100240000310F70D7708D5042B162B0883168700AB
:1002500000308312071A0130F700F70DF70DFC305C
:10026000F7057708D504AB162B08831687000030F6
:100270008312871A0130F700F70DF70DF70DF830EC
:10028000F7057708D5045508F8000800AB102B08CF
:100290008316870083122B102B0883168700831286
:1002A0002B132B0883168700831207102B102B08A3
:1002B00083168700071587150716871683120717F9
:1002C0002B132B0883168700000083128714AB10B2
:1002D0002B0883168700000083120D217808D400B4
:1002E0008710AB102B088316870000008312871439
:1002F000AB102B08831687000630F700F70B7E291A
:10030000000083120D217808D3008710AB102B0852
:100310008316870083122B112B0883168700831204
:10032000AB112B088316870083122B122B08831620
:1003300087008312AB122B08831687008312540E9A
:10034000F700F030F70577085304F8007808D30079
:10035000D31FAC2983165A29D108031DB1290710D0
:10036000B22907142B102B08831687000000831274
:1003700007132B132B0883168700000083128710A6
:10038000AB102B08831687008312520ED3000F3058
:10039000D3055308D400D32052080F39D300D4001A
:1003A000D32008002830C0000C30C1000130C2004A
:1003B0000630C3008710AB102B088316870083120A
:1003C00007102B102B0883168700831207132B139B
:1003D0002B088316870083122B112B0883168700A6
:1003E0008312AB112B088316870083122B122B0864
:1003F000831687008312AB122B08831687008312A3
:10040000AB102B088316870083122B102B08831642
:10041000870083122B132B08831687000F3083125B
:10042000CD00BF200130BF003F08033C031C202A41
:100430000330D400D3200530CD00BF20BF0A142ADA
:100440000230D400D3200530CD00BF20BF013F08CB
:10045000033C031C372A40303F0784008313000805
:10046000C400D1014408D2004621BF0A272A8A15B8
:100470000A12342B83168817831208138316081365
:100480000630F700F70B422A000083120817831684
:1004900008130630F700F70B4B2A0000831288136D
:1004A000831688130630F700F70B542A00008312D6
:1004B0000813831608130D30F700F70B5D2A83121B
:1004C0000817831608130630F700F70B652A00009B
:1004D00088170630F700F70B6B2A00008312081309
:1004E00083160813831208008316881783120813D3
:1004F000831608130D30F700F70B7C2A8312BF0117
:100500003F08083C031C962A0817831608130D3071
:10051000F700F70B892A83120813831608130D308E
:10052000F700F70B912A8312BF0A802A3A2214306F
:10053000CD00BF208A150A12372B4E0BA02AA32A02
:100540004030CF00A42ACF0101304D02CF074F0821
:100550008038D000D1015008D200462108004C0854
:10056000073A0319BD2A0B3A0319C22A063A03199E
:10057000CA2A023A0319D02AD52A0130CD00CE006A
:100580009D22DA2AD1010130D20046210230CD006D
:10059000BF20DA2A0130CD000230CE009D22DA2AB7
:1005A000D1011030D2004621DA2A0130D1004C08A6
:1005B000D200462108000B08BF008B1383160317D7
:1005C0008C170C140000000083120313BF1B8B1741
:1005D00003170C087F3903192F2B0313BF000317D0
:1005E0000D080313C00003170F080313C1003F08D1
:1005F000CC00AF22400803178D00031341080317F6
:100600008F0003130B08C2008B13831603178C177C
:100610000C140000000083120313C21B8B17031776
:100620000C0D0E0D7F3903192F2B0313BF00031779
:100630000D080313C00003170F080313C1003F0880
:10064000CC00AF22400803178D00031341080317A5
:100650008F008D0A03198F0A0313DB2A0317031374
:1006600008008316861183128615831606118312DD
:1006700006158316861083128610061A422B013047
:10068000F800902B861A472B0430F800902B061B9D
:100690004C2B0730F800902B861B512B4D30F80067
:1006A000902B8316861183128615831606118312EA
:1006B00006118316861083128614061A622B0230E6
:1006C000F800902B861A672B0530F800902B061B3C
:1006D0006C2B0830F800902B861B712B0030F80033
:1006E000902B8316861183128611831606118312AE
:1006F00006158316861083128614061A822B033081
:10070000F800902B861A872B0630F800902B061BDA
:100710008C2B0930F800902B861B902B6330F8004F
:100720008A150A12882B0B08C0008B138316031737
:100730008C170C140000000083120313C01B8B17CE
:100740000318CA2B03170C087F390313C0000317C3
:100750000D080313C10003170F080313C20040085C
:10076000CC00AF22410803178D0003134208031782
:100770008F0003130B08C3008B13831603178C170A
:100780000C140000000083120313C31B8B17BF0B54
:10079000CA2BE92B03170C0D0E0D7F390313C00074
:1007A00003170D080313C10003170F080313C2003A
:1007B0004008CC00AF22410803178D000313420804
:1007C00003178F008D0A03198F0A03100313BF0B41
:1007D000932B0800C7010408C6004710831B471469
:1007E000400EF038C200C207E23EC300323EC500F0
:1007F00040080F39C307C307C507E93EC400C40753
:10080000C4073F0E0F39C407C507C40DC50DC50980
:10081000C50D3F080F39C507C20D0730C1000A30AA
:10082000C507C403031C102CC407C303031C142CEA
:10083000C307C203031C182CC207C103031C1C2CD2
:100840004130840083130730460546138407453042
:100850000402031946170008F700031D372C461B36
:10086000372C461A492CC619372C20303A2CC6157D
:1008700046123030F707C0010408BF004010831B48
:1008800040147708CC00AF223F088400831340183F
:100890008317840A461F272C08001F151F194E2C8A
:1008A00083161E088312AC001E08AD000C30CC006D
:1008B000AF220130CD00CE009D220310AD0CAC0C58
:1008C000AD08031D672C2C08643C0318882C0330EA
:1008D000AC020030031C0130AD02603003178D0004
:1008E00000308F00031006300313BF009323023043
:1008F00084002D08C0002C08BF00EA232030CC0063
:10090000AF22DF30CC00AF224330CC00AF22F22C3C
:10091000AD08031D8F2C2C08463C0318B02C023068
:10092000AC020030031C0130AD02683003178D00AB
:1009300000308F00031006300313BF0093230330F1
:1009400084002D08C0002C08BF00EA232030CC0012
:10095000AF22DF30CC00AF224330CC00AF22F22CEC
:10096000AD08031DB72C2C08193C0318D82C0130F6
:10097000AC020030031C0130AD02703003178D0053
:1009800000308F00031006300313BF0093230330A1
:1009900084002D08C0002C08BF00EA232030CC00C2
:1009A000AF22DF30CC00AF224330CC00AF22F22C9C
:1009B000783003178D0000308F00031006300313CA
:1009C000BF009323033084002D08C0002C08BF0013
:1009D000EA232030CC00AF22DF30CC00AF224330FE
:1009E000CC00AF22AD08031D1B2D2C08183C031CA6
:1009F0001B2D0130CD000230CE009D228030031728
:100A00008D0000308F000313DB2283160810831241
:100A10000814AB132B0883168700831287132B133C
:100A20002B088316870083120713831688108312FE
:100A300088100130AE00AD08031D222D2C08183C93
:100A400003184B2DAD08031D4B2D2C08283C031C0F
:100A50004B2D0130CD000230CE009D228530031792
:100A60008D0000308F000313DB222B132B0883161D
:100A7000870083120717AB132B0883168700831296
:100A800087138316081083120810831688108312A8
:100A900088100130AE00AD08031D522D2C08283CF3
:100AA0000318732D0130CD000230CE009D228B3013
:100AB00003178D0000308F000313DB22AB132B08CC
:100AC00083168700831287172B132B088316870042
:100AD00083120713831608108312081083168810D8
:100AE00083128810AE0108008030D4001A30F7005D
:100AF000F70B782D0000D3015308073C031CA22DEF
:100B000008138316081383125208540503198C2DF9
:100B1000831688178F2D8312881383168813063047
:100B2000F700F70B912D00008312081783160813A6
:100B30000630F700F70B9A2D000003108312D40C37
:100B4000D30A7C2D0813831608130630F700F70B21
:100B5000A72D0000881783125510881B55140817FD
:100B6000831608130630F700F70BB42D000083122C
:100B70000813831608130030831255180130F8004B
:100B8000080083168817831208138316081306308B
:100B9000F700F70BC92D00008312D301D2015308CF
:100BA000753C031CE72D031DD92D52082F3C031C57
:100BB000E72D831688178312881FE72D4230F70030
:100BC000F70BE02D0000D20A0319D30ACF2D08003D
:100BD000D401D301D2015208073C031C0A2E031092
:100BE000D30DD40D0817831608130630F700F70B42
:100BF000F72D000088178312881FFF2D5314081348
:100C0000831608130630F700F70B042E000083123A
:100C1000D20AEB2D8813831688130630F700F70BE2
:100C20000F2E000083120817831608130D30F700EB
:100C3000F70B182E83120813831608130630F700DB
:100C4000F70B202E000088178312D2015208073CB0
:100C5000031C452E0310D30DD40D0817831608135B
:100C60000630F700F70B322E000088178312881F1A
:100C70003A2E53140813831608130630F700F70BA7
:100C80003F2E00008312D20A262E831688170630C4
:100C9000F700F70B492E000083120817831608137C
:100CA0000D30F700F70B522E83120813831608132A
:100CB00083125308F8005408F90008008E30F7003A
:100CC0006408F8006308F900FA01F808031D722EA1
:100CD0007908F800F9010830F702F808031D722EB0
:100CE000F7017A2E0310F81B792EF90DF80DF70392
:100CF000722EF81308006B080319072F8316A00043
:100D000083126F080319072F8316A0070318932E69
:100D10007F30A00203188E2E8312072F031D922E00
:100D20008312072F992E8130A007031C992E83125E
:100D3000072F2008F700F801F901FA0183126C0867
:100D40008316A400A41783126D088316A3008312D0
:100D50006E088316A2001830A000A101221CCD2E1F
:100D60007208FA07031CBA2EF90A031DBA2EF80AF4
:100D70000319A1177108F907031CC12EF80A0319FA
:100D8000A11770088312ED00ED176D08F807031C1A
:100D9000CC2E8316A11783128316A10DF80CF90C23
:100DA000FA0CA40CA30CA20C0310A00BAD2E013066
:100DB000F707031CDD2E8312072FF81BE72EA40D67
:100DC000FA0DF90DF80DF70BE72E8312072FA41F6C
:100DD000FA2EFA0A031DFA2EF90A031DFA2EF80A52
:100DE000031DFA2EF80CF90CFA0CF70A031DFA2E63
:100DF0008312072F83126C088316A1007008A106C6
:100E0000A11F042FF8170C2FF8130C2F8312F701D2
:100E1000F801F901FA018316831208004008C7009F
:100E20004408C706C71F192F03110310C01B031462
:100E30004C2F4008C7004308C8003F08C8020319E8
:100E4000272FC71F4C2F0308013A83004C2F44085B
:100E5000C8004008C8020319332FC71F4C2F0308CE
:100E6000013A83004C2F4508C8004108C802031905
:100E70003F2FC71F4C2F0308013A83004C2F460811
:100E8000C8004208C80203194B2FC71F4C2F030884
:100E9000013A83004C2F031008008318522F54305E
:100EA00084008313F701F801F901FA01D401D50197
:100EB000D601D70153085204510450040319902F4E
:100EC0002030D8000310CC0DCD0DCE0DCF0DD40D9C
:100ED000D50DD60DD70D53085702031D792F520893
:100EE0005602031D792F51085502031D792F500812
:100EF0005402031C8A2F5008D4025108031C510FBE
:100F0000D5025208031C520FD6025308031C530F7C
:100F1000D7020314F70DF80DF90DFA0DD80B622F57
:100F200054088000840A55088000840A560880000E
:080F3000840A57088000080044
:1010000080308318EC06F101F2016808F0006C08EA
:10101000F00667080319F028EF00F7006B080319C2
:10102000F928EF0203199528031C53286C08F500D2
:10103000F5176D08F4006E08F300F2010310F50CCB
:10104000F40CF30CF20CEF0B1D28F01F2A2871147E
:101050000D2971106F1071166A30840083132229D4
:101060007112F01B3D286F1C4828F50CF40CF30C92
:10107000F20CF70A031908294828F51B4B2803101E
:10108000F20DF30DF40DF50DF703031908293D28B2
:101090007117B52871136808F000F01F5128F51773
:1010A0000129F51301296B08EF00F7006708EF022B
:1010B0006808F500F5176908F4006A08F300F20102
:1010C0000310F50CF40CF30CF20CEF0B5F28F01F7F
:1010D0006C28F1140D29F1106F10F1166E30840098
:1010E00083132229F112F01B7F286F1C8A28F50C2C
:1010F000F40CF30CF20CF70A031908298A28F51BE3
:101100008D280310F20DF30DF40DF50DF7030319FF
:1011100008297F28F117B528F1136C08F000F01F9B
:101120009328F5170129F51301296C08F500F51727
:101130006D08F4006E08F300F01FA228F513711576
:101140000D297111F2016F106A3084008313222976
:10115000F01BCB286808F0006F1CB528F50CF40CC8
:10116000F30CF20CF70A03190829F21FC628F30A38
:10117000031DC628F40A031DC628F50A031DC62848
:10118000F50CF40CF30CF70A03190829711B4A2813
:10119000F11B8C28EA288030F506F51FD3280D298D
:1011A0006C08F000E0286808F000F508031DE0284E
:1011B000F408031DE028F308031DE028F7010129C6
:1011C000F51BEA280310F20DF30DF40DF50DF70BE6
:1011D000E0280829F01FEE28F5170129F513012949
:1011E0006B08F7006C08F5006D08F4006E08F3005A
:1011F00001296708F7006808F5006908F4006A0823
:10120000F3007508F8007408F9007308FA00402923
:10121000F701F801F901FA014029F201F309F40993
:10122000F509F209F20A031D1B29F30A031D1B2904
:10123000F40A0319F50A71182928F1186B28711995
:10124000A128D0280008F307031C2C29F40A031D49
:101250002C29F50A03196F1484030008F407031CF2
:101260003429F50A03196F1484030008801F803A9B
:10127000F50703186F14711A3028F11A7228A8287C
:1012800008000408C4004308C60003196229420884
:10129000EE004108ED004008EC003F08EB00F201D1
:1012A000F1012030F0008230EF008A117B268A1590
:1012B0007A08C2007908C1007808C0007708BF002A
:1012C000C60B47294208CF004108CE004008CD0098
:1012D0003F08CC004C08B63CCC00FA014D08D000C9
:1012E000CD170310CD0CCE0CCF0CFA0CF90CF80C6A
:1012F000F70CCC0B7129D01F8829F709F809F909D7
:10130000FA09F70A0319F80A0319F90A0319FA0A7C
:101310007A08C2007908C1007808C0007708BF00C9
:10132000C21F9F29C403C416BF09C009C109C2094D
:10133000BF0A0319C00A0319C10A0319C20A3B30C4
:10134000CB009A30CA00CA30C900C8010A30C600B2
:1013500043080319C40A83143F30840083134208EE
:10136000CF004108CE004008CD003F08CC004B081C
:10137000D3004A08D2004908D1004808D0008A1199
:101380004D278A157808F708031DD929430A460214
:101390000319D92944080319DB290F394602031917
:1013A000D3290318132AC41B132A441BDB2920301A
:1013B0000D2A2030C405C41EEB29C4124308031DA6
:1013C000C4037708C4002D30CC008A11AF228A15DF
:1013D0004408F700C40143084602031DFB297708AF
:1013E000C4002E30CC008A11AF228A154408F700C1
:1013F0002030C40500303030C41E0D2AC41243080A
:10140000031DC4037708C4002D30CC008A11AF221D
:101410008A154408F700C4013030F7077708CC007C
:101420008A11AF228A1583104B08CF004A08CE00DC
:101430004908CD004808CC00D301D201D1010A30BF
:10144000D0008A114D278A157A08CB007908CA0086
:101450007808C9007708C800C60BAB290800430804
:101460000319F42ACF0047080319F42ACF02031CFA
:101470003E2A7F30CF070318F42A442A8130CF0256
:10148000031CF42A0319F42A4F08F700F801F901A4
:10149000FA01CE014408CD00CD174508CC0046081E
:1014A000CB001930CF004A08CB020318672A01305D
:1014B000CC020318672ACD020318672ACE0203184C
:1014C000672ACE0ACD0ACC0A4A08CB07992A4908CE
:1014D000CC020318822A0130CD020318822ACE02E0
:1014E0000318822ACE0ACD0A4908CC074A08CB073E
:1014F000031C992ACC0A031D992ACD0A031D992A97
:10150000CE0A992A48088038CD020318982A01305B
:10151000CE020318982ACE0A48088038CD07490819
:10152000CC07031C762ACD0A031D762ACE0A762A1A
:101530007A14CF0B9C2AA72A0310CB0DCC0DCD0D0E
:10154000CE0D0310FA0DF90DF80DD00D532A501CD5
:10155000AF2A0310F80CF90CFA0CD00CB22AF703DE
:101560000319F42AD01BDB2A0310CB0DCC0DCD0DB3
:10157000CE0D4A08CB020318C72A0130CC0203184B
:10158000C72ACD020318C72ACE02031CEA2A49083B
:10159000CC020318D22A0130CD020318D22ACE027F
:1015A000031CEA2A48088038CD020318DB2A0130E0
:1015B000CE02031CEA2AFA0A031DEA2AF90A031DCD
:1015C000EA2AF80A031DEA2AF70A0319F42AF80C92
:1015D000F90CFA0C4408CF004808CF06CF1FF22AB6
:1015E000F817F82AF813F82AF701F801F901FA01B7
:1015F0008A150A126E2E03081F398300FF30AB00D4
:101600000130AE00AF00B101B00183161F149F146A
:101610001F159F1107309C008313011383128B1039
:101620000B16C0308B04F130831686000F30850016
:101630000910891009158501F03083128500831681
:10164000091089100911831289010030831687005F
:101650008312AB00831688008801831288018316E9
:1016600081138A118312D2298A158A11742A8A1544
:1016700083161F1383121F139F1783169F1783123E
:101680001F1483161F109F141F159F1501308312FE
:10169000CD00CE008A119D228A15903003178D004F
:1016A00000308F008A110313DB228A150A30CD0027
:1016B0000130CE008A119D228A15943003178D00C7
:1016C00000308F008A110313DB228A150130CD0010
:1016D0000230CE008A119D228A15983003178D00A2
:1016E00000308F008A110313DB228A150A30CD00E7
:1016F0000230CE008A119D228A159C3003178D007E
:1017000000308F008A110313DB228A158A11312BD6
:101710008A157808BE003E0BA62B0030F8001F0883
:10172000C73978049F008A114D248A158316081141
:1017300083120815831688118312881183160812E4
:101740008312081283168812831288123E08023C04
:10175000031DC32B0830F8001F08C73978049F0009
:101760008A114D248A1583160811831208118316D5
:1017700088118312881583160812831208128316A3
:101780008812831288123E08033C031DE02B1030A0
:10179000F8001F08C73978049F008A114D248A1564
:1017A0008316081183120815831688118312881571
:1017B0008316081283120812831688128312881265
:1017C0003E08043C031DFD2B1830F8001F08C739E4
:1017D00078049F008A114D248A15831608118312FC
:1017E0000811831688118312881183160812831238
:1017F000081683168812831288123E08053C031DC2
:10180000012C3E08063C031D262EC001BF01B90174
:10181000B801B701B6018A113A228A150330D20005
:101820008A1174258A154F1078184F144F1C1C2CE0
:101830000030F800F9002A2C8A11C1258A158A1176
:10184000E8258A157908D1007808D0005008F800FA
:101850005108F9007908C0007808BF008A113A22BF
:101860008A150530D2008A1174258A154F10781810
:101870004F144F1C3F2C0030F800F9004D2C8A11FA
:10188000C1258A158A11E8258A157908D1007808BA
:10189000D0005008F8005108F9007908C200780813
:1018A000C1004008D0003F08CF004208D2004108E4
:1018B000D1005008E4004F08E3008A115E268A1523
:1018C0007A08DA007908D9007808D8007708D700B4
:1018D0007A08EE007908ED007808EC007708EB0054
:1018E0000A30F200D730F1002330F0007830EF00FA
:1018F0008A117B268A157A08DA007908D9007808D7
:10190000D8007708D70083147A08EA007908E9003C
:101910007808E8007708E700EE01ED012030EC00E0
:101920008430EB0000207A08B5007908B40078080C
:10193000B3007708B2005208E4005108E3008A11AE
:101940005E268A157A08D6007908D5007808D40072
:101950007708D3005608EE005508ED005408EC0057
:101960005308EB005430F200E330F1002530F00072
:101970007A30EF008A117B268A157A08DA00790816
:10198000D9007808D8007708D7005608EE00550827
:10199000ED005408EC005308EB005608F20055081F
:1019A000F1005408F0005308EF008A117B268A15D5
:1019B0007A08DE007908DD007808DC007708DB00B3
:1019C0007A08EE007908ED007808EC007708EB0063
:1019D000A230F200E730F1003B30F0006C30EF0055
:1019E0008A117B268A1583145A08EA005908E900EF
:1019F0005808E8005708E7007A08EE007908ED007B
:101A00007808EC007708EB0000207A08DA00790803
:101A1000D9007808D8007708D70083147A08EA003C
:101A20007908E9007808E8007708E700EE01ED01A1
:101A3000EC018130EB0000207A08C6007908C5006F
:101A40007808C4007708C30083143508EA00340816
:101A5000E9003308E8003208E700EE01ED01483004
:101A6000EC008330EB0000207A08DA007908D90016
:101A70007808D8007708D700AC30EE00C530ED000C
:101A80002730EC007130EB005608F2005508F100E9
:101A90005408F0005308EF008A117B268A15831042
:101AA0000A30EA00D730E9002330E8007830E70058
:101AB0007A08EE007908ED007808EC007708EB0072
:101AC00000205A08EE005908ED005808EC005708AD
:101AD000EB007A08F2007908F1007808F000770846
:101AE000EF008A117B268A157A08DA007908D90076
:101AF0007808D8007708D70083107A08EA007908B8
:101B0000E9007808E8007708E7004608EE00450895
:101B1000ED004408EC004308EB0000207A08B9000F
:101B20007908B8007808B7007708B6000C30CC0008
:101B30008A11AF228A150130CD00CE008A119D2274
:101B40008A153908C2003808C1003708C0003608B5
:101B5000BF00C601C5012030C4008430C3008A1113
:101B60000E278A150318AF01A03003178D0000302F
:101B70008F00031007300313BF008A1193238A15C7
:101B8000023084003908C2003808C1003708C0009C
:101B90003608BF000130C30041212030CC008A113B
:101BA000AF228A152530CC008A11AF228A15203049
:101BB000CC008A11AF228A152030CC008A11AF22C6
:101BC0008A152030CC008A11AF228A153908C2004C
:101BD0003808C1003708C0003608BF00C601C5017B
:101BE0002030C4008430C3008A110E278A15031CDC
:101BF0001D2E0130CD000230CE008A119D228A15A3
:101C0000AA3003178D0000308F008A110313DB22E6
:101C10008A1583168810831288148316081083127D
:101C20000810AB132B0883168700831287132B131E
:101C30002B0883168700831207130230BF00FA3087
:101C4000CD008A11BF208A15BF0B1F2E3E08073C0E
:101C5000031DEE2E3830F8001F08C73978049F00A6
:101C60001F151F19312E1E08FA0083161E08831235
:101C7000E3001E08E4008A115E268A157A08BD007A
:101C80007908BC007808BB007708BA003D08EE0070
:101C90003C08ED003B08EC003A08EB00F201F101D2
:101CA0000C30F0008330EF008A117B268A157A0809
:101CB000C2007908C1007808C0007708BF007A0820
:101CC000C6007908C5007808C4007708C300CA01B7
:101CD000C9012030C8008230C7002F2A7A08BD0011
:101CE0007908BC007808BB007708BA000C30CC003B
:101CF0008A11AF228A150130CD00CE008A119D22B3
:101D00008A153D08C2003C08C1003B08C0003A08E3
:101D1000BF00C601C5017030C4008430C3008A1101
:101D20000E278A15031CB62E83143D08EA003C08D2
:101D3000E9003B08E8003A08E700EE01ED01203039
:101D4000EC008130EB0000207A08BD007908BC006F
:101D50007808BB007708BA00AF3003178D00003059
:101D60008F008A110313DB228A15BF2EB2300317AE
:101D70008D0000308F008A110313DB228A15013099
:101D8000CD000230CE008A119D228A15B53003178E
:101D90008D0000308F00031009300313BF008A113B
:101DA00093238A15023084003D08C2003C08C1001C
:101DB0003B08C0003A08BF000130C3004121203079
:101DC000CC008A11AF228A152030CC008A11AF22B4
:101DD0008A152530CC008A11AF228A153E08083CAE
:101DE000031DF22E3E08093C031DF62E3E084D3C15
:101DF000031D062FAF08031D022F8316091083123F
:101E00000914062F8316091083120910BE08031D3A
:0E1E1000092F3E08633C031D0D2F862B630037
:02400E00432F3E
:00000001FF
;PIC16F877A
;CRC=D3C1  CREATED="27-ﬂ«‰Ê‰†«·√Ê·-22 20:31"
