:100000000A308A001D2A0000FF00030E8301A100B0
:100010000A08A0008A010408A2007708A300780853
:10002000A4007908A5007A08A60003170D08031399
:10003000A70003170F080313A80003170C080313E6
:10004000A90003170E080313AA00831383120B1EC3
:100050002B288B184C28220884002308F70024083A
:10006000F8002508F9002608FA00270803178D0074
:100070000313280803178F000313290803178C00A4
:1000800003132A0803178E00031320088A00210E89
:100090008300FF0E7F0E09008A110A12A22D201084
:1000A00020103C1EE4376F39A037F032EE34EE33C7
:1000B0003E1F2000201020103C1EE4376F39A03175
:1000C000EC37F334EE333E1F2000680B68286B28B2
:1000D0004030E9006C28E90101306702E90769084E
:1000E0008038EA00EB016A08EC008316081108105A
:1000F00088108312081083160810881508168816B1
:1001000008178312881483168810000083120815BC
:100110008316081100008312EF0183168815003042
:10012000831288190130EF048316081600308312F9
:10013000081A0130F7000310F70D7708EF04831653
:10014000881600308312881A0130F700F70DF70D7A
:10015000FC30F7057708EF04831608170030831288
:10016000081B0130F700F70DF70DF70DF830F70514
:100170007708EF046F08F8007808EE00081183167E
:10018000081100008312081583160811C728C82813
:1001900000008312EF01831688150030831288193E
:1001A0000130EF048316081600308312081A01305C
:1001B000F7000310F70D7708EF0483168816003058
:1001C0008312881A0130F700F70DF70DFC30F705A0
:1001D0007708EF048316081700308312081B0130DC
:1001E000F700F70DF70DF70DF830F7057708EF0476
:1001F0006F08F8007808ED000811831608118811BF
:1002000008128812081383126E0EF700F030F705FB
:1002100077086D04F8007808ED00ED1F11298316AA
:100220007D28EB08031D16290810172908148316CA
:1002300008100000831288108316881000008312B3
:1002400008118316081183126C0EED000F30ED05B6
:100250006D08EE006E182E2988112F298815831637
:1002600088118312EE1836290812372908168316CA
:10027000081283126E193E2988123F2988168316A8
:1002800088128312EE194629081347290817831686
:100290000813000083120815831608110330F700B5
:1002A000F70B5029831208118316081183126C086A
:1002B0000F39ED006D08EE006E1860298811612974
:1002C0008815831688118312EE1868290812692987
:1002D00008168316081283126E1970298812712964
:1002E0008816831688128312EE1978290813792943
:1002F00008178316081300008312081583160811C7
:100300000330F700F70B82298312081183160811B6
:1003100083120800673084008313000803199D29A5
:100320000630F800F701F70B9329F80B92297B3080
:10033000F700F70B9929800B902908006608073A07
:100340000319AC290B3A0319B129063A0319CC2A2F
:10035000023A0319D22AEA2B0130E700E8006520AF
:10036000022DEB010130EC008316081108108810F3
:1003700083120810831608108815081688160817A7
:1003800083128814831688100000831208158316C0
:10039000081100008312EF018316881500308312C4
:1003A00088190130EF048316081600308312081AEA
:1003B0000130F7000310F70D7708EF048316881655
:1003C00000308312881A0130F700F70DF70DFC306A
:1003D000F7057708EF048316081700308312081B0F
:1003E0000130F700F70DF70DF70DF830F705770836
:1003F000EF046F08F8007808EE0008118316081162
:1004000000008312081583160811062A072A000027
:100410008312EF018316881500308312881901308A
:10042000EF048316081600308312081A0130F70013
:100430000310F70D7708EF04831688160030831237
:10044000881A0130F700F70DF70DFC30F705770833
:10045000EF048316081700308312081B0130F700E1
:10046000F70DF70DF70DF830F7057708EF046F0873
:10047000F8007808ED000811831608118811081299
:100480008812081383126E0EF700F030F705770814
:100490006D04F8007808ED00ED1F502A8316BC2982
:1004A000EB08031D552A0810562A08148316081055
:1004B0000000831288108316881000008312081130
:1004C0008316081183126C0EED000F30ED056D08D8
:1004D000EE006E186D2A88116E2A88158316881111
:1004E0008312EE18752A0812762A08168316081247
:1004F00083126E197D2A88127E2A88168316881226
:100500008312EE19852A0813862A08178316081302
:10051000000083120815831608110330F700F70B4B
:100520008F2A831208118316081183126C080F3961
:10053000ED006D08EE006E189F2A8811A02A88151C
:10054000831688118312EE18A72A0812A82A081603
:100550008316081283126E19AF2A8812B02A8816E1
:10056000831688128312EE19B72A0813B82A0817BF
:100570008316081300008312081583160811033030
:10058000F700F70BC12A83120811831608110230F5
:100590008312E7008A21022D0130E7000230E800D3
:1005A0006520022DEB011030EC00831608110810B5
:1005B00088108312081083160810881508168816EC
:1005C00008178312881483168810000083120815F8
:1005D0008316081100008312EF018316881500307E
:1005E000831288190130EF04831608160030831235
:1005F000081A0130F7000310F70D7708EF0483168F
:10060000881600308312881A0130F700F70DF70DB5
:10061000FC30F7057708EF048316081700308312C3
:10062000081B0130F700F70DF70DF70DF830F7054F
:100630007708EF046F08F8007808EE0008118316B9
:10064000081100008312081583160811272B282B88
:1006500000008312EF018316881500308312881979
:100660000130EF048316081600308312081A013097
:10067000F7000310F70D7708EF0483168816003093
:100680008312881A0130F700F70DF70DFC30F705DB
:100690007708EF048316081700308312081B013017
:1006A000F700F70DF70DF70DF830F7057708EF04B1
:1006B0006F08F8007808ED000811831608118811FA
:1006C00008128812081383126E0EF700F030F70537
:1006D00077086D04F8007808ED00ED1F712B831684
:1006E000DD2AEB08031D762B0810772B08148316E0
:1006F00008100000831288108316881000008312EF
:1007000008118316081183126C0EED000F30ED05F1
:100710006D08EE006E188E2B88118F2B88158316AE
:1007200088118312EE18962B0812972B0816831641
:10073000081283126E199E2B88129F2B881683161F
:1007400088128312EE19A62B0813A72B08178316FD
:100750000813000083120815831608110330F700F0
:10076000F70BB02B831208118316081183126C0843
:100770000F39ED006D08EE006E18C02B8811C12BEB
:100780008815831688118312EE18C82B0812C92BFE
:1007900008168316081283126E19D02B8812D12BDB
:1007A0008816831688128312EE19D82B0813D92BBA
:1007B0000817831608130000831208158316081102
:1007C0000330F700F70BE22B831208118316081190
:1007D0008312022D0130EB006608EC00831608112D
:1007E0000810881083120810831608108815081640
:1007F0008816081783128814831688100000831245
:1008000008158316081100008312EF01831688155E
:100810000030831288190130EF0483160816003067
:100820008312081A0130F7000310F70D7708EF0460
:100830008316881600308312881A0130F700F70DEE
:10084000F70DFC30F7057708EF0483160817003022
:100850008312081B0130F700F70DF70DF70DF83084
:10086000F7057708EF046F08F8007808EE00081124
:100870008316081100008312081583160811402CF6
:10088000412C00008312EF0183168815003083127B
:1008900088190130EF048316081600308312081AF5
:1008A0000130F7000310F70D7708EF048316881660
:1008B00000308312881A0130F700F70DF70DFC3075
:1008C000F7057708EF048316081700308312081B1A
:1008D0000130F700F70DF70DF70DF830F705770841
:1008E000EF046F08F8007808ED000811831608116E
:1008F000881108128812081383126E0EF700F03068
:10090000F70577086D04F8007808ED00ED1F8A2CD4
:100910008316F62BEB08031D8F2C0810902C08145F
:1009200083160810000083128810831688100000B8
:10093000831208118316081183126C0EED000F301C
:10094000ED056D08EE006E18A72C8811A82C8815EF
:10095000831688118312EE18AF2C0812B02C0816DB
:100960008316081283126E19B72C8812B82C8816B9
:10097000831688128312EE19BF2C0813C02C081797
:10098000831608130000831208158316081103301C
:10099000F700F70BC92C8312081183160811831274
:1009A0006C080F39ED006D08EE006E18D92C881117
:1009B000DA2C8815831688118312EE18E12C0812A0
:1009C000E22C08168316081283126E19E92C88127D
:1009D000EA2C8816831688128312EE19F12C08135C
:1009E000F22C0817831608130000831208158316CB
:1009F00008110330F700F70BFB2C83120811831644
:100A00000811831208000B08E3008B1383160317E9
:100A10008C170C140000000083120313E31B8B17C8
:100A200003170C087F390319572D0313E30003172D
:100A30000D080313E40003170F080313E500630810
:100A4000E6009E21640803178D0003136508031751
:100A50008F0003130B08E6008B13831603178C1704
:100A60000C140000000083120313E61B8B170317FE
:100A70000C0D0E0D7F390319572D0313E3000317D7
:100A80000D080313E40003170F080313E5006308C0
:100A9000E6009E21640803178D0003136508031701
:100AA0008F008D0A03198F0A0313032D03170313F5
:100AB0000800831609108312091483168910831203
:100AC000891083160911831209150130E7000230DD
:100AD000E80065204F3003178D0000308F000313AE
:100AE00003250830E300FA30E7008A21E30B732D79
:100AF0008316091083120910831689108312891432
:100B00000C30E6009E210130E7000230E80065204D
:100B10005A3003178D0000308F000313032508306F
:100B2000E300FA30E7008A21E30B912D8316891048
:100B30008312891083160911831209110C30E60003
:100B40009E2108008B1059258B108A110A122B2820
:100B5000D732EC31EF366510F43720246139E237B3
:100B6000721000017036E131E539201DA0123132DA
:100B7000200020102031753AF4376E104927AF223B
:100B8000D824541000012010A0396F39F23CA03C49
:100B9000EF3AA0316137273AA0326E3A653920002A
:100BA0002010203375366C10F13AE53A65100001DB
:100BB0002010A03CEF3AA0316137A0326E3A65397F
:100BC000203A6F10D12AC52A451000012010203884
:100BD000F232F339A011203A6F104527D422521671
:100BE0002015203A6F10452C492A00012010F937B2
:100BF0007510613965106937A038F532F532203744
:100C0000F5362F10A51864102F007434653965105F
:100C1000613965103A10A5186410E232E637F232F5
:100C2000A03CEF3A2000E7376F322031F932000163
:100C3000743465396510613965103A10A51864106F
:100C40007036E131E53920007039E53973106F37BE
:100C500065106F333A100001F732EC31EF36651052
:100C6000F437201DA01231322038EC30E33220005E
:100C700077396F376710EE3A6D316539203AF23CBB
:100C8000A030E730693720003C1EBC22D824541F16
:100C90003E1000016537F4327210F937753920368D
:100CA000EF31613AE9376E10000177396F37671F0E
:100CB0003E1F203AF23CA030E73069370001D222D3
:100CC00041225910F437A022D824541F3E1F00019E
:100CD000F13AE53A65103E1F3E336939733AA03761
:100CE000EE32A0326E3A653900000530D100D201F3
:100CF0005208043C031C852E3930520784008313AC
:100D0000000B832ED103D20A782E5108F800080078
:100D10000B08D3008B13831603178C170C140000D9
:100D2000000083120313D31B8B170318C52E031760
:100D30000C087F390313D30003170D080313D400E5
:100D400003170F080313D500AB018B1BAB178B13D5
:100D50005308E6009E21AB1B8B17540803178D0028
:100D60000313550803178F0003130B08D6008B13CA
:100D7000831603178C170C14000000008312031352
:100D8000D61B8B17D20BC52EEA2E03170C0D0E0D9A
:100D90007F390313D30003170D080313D40003177F
:100DA0000F080313D500AB018B1BAB178B13530834
:100DB000E6009E21AB1B8B17540803178D0003130D
:100DC000550803178F008D0A03198F0A03100313A8
:100DD000D20B882E08005908F80158020318F32E88
:100DE0005808F700FF2EF7010830DA00D80DF70D8C
:100DF000590877020318F700F80DDA0BF62E0800F1
:100E00002030531E3030D4005208F700D21F102F6C
:100E1000F709F70A7708D2002D30D400D3175314FE
:100E20005208D8006430D900EB267708D200303061
:100E30007807D5005208D8000A30D900EB263030A8
:100E40007707D70030307807D6005408F7003030E5
:100E5000550203192F2FD314D31B5315432F5408B6
:100E6000D5002030D4003030560203193B2F5314E4
:100E7000D31BD314432F031D5314031D432F5508B5
:100E8000D6002030D50053194A2FD318532F5318AA
:100E90005C2F652FAB018B1BAB178B135408E6003F
:100EA0009E21AB1B8B17AB018B1BAB178B1355080C
:100EB000E6009E21AB1B8B17AB018B1BAB178B1373
:100EC0005608E6009E21AB1B8B17AB018B1BAB17A3
:100ED0008B135708E6009E21AB1B8B1708000A30C6
:100EE000D100D2015208093C031C7F2F2F3052073A
:100EF00084008313000B7D2FD103D20A722F510877
:100F0000F8000800831686118312861583160611D1
:100F1000831206158316861083128610061A932FE5
:100F20000130F800E12F861A982F0430F800E12FE5
:100F3000061B9D2F0730F800E12F861BA22F0A30D9
:100F4000F800E12F83168611831286158316061189
:100F5000831206118316861083128614061AB32F85
:100F60000230F800E12F861AB82F0530F800E12F83
:100F7000061BBD2F0830F800E12F861BC22F003062
:100F8000F800E12F8316861183128611831606114D
:100F9000831206158316861083128614061AD32F21
:100FA0000330F800E12F861AD82F0630F800E12F21
:100FB000061BDD2F0930F800E12F861BE12F0B30D7
:040FC000F80008002D
:101000002830D2000C30D3000130D4000630D50097
:101010000811831608118312081083160810831212
:101020008810831688108811081288120813081176
:10103000081088108312AB018B1BAB178B130F307A
:10104000E7008A118A218A15AB1B8B170130D1006A
:101050005108033C031C68280330EE006E18322848
:10106000881133288815831688118312EE183A28C0
:1010700008123B2808168316081283126E1942289C
:10108000881243288816831688128312EE194A287C
:1010900008134B280817831608130000831208153D
:1010A000831608110330F700F70B54288312081138
:1010B000831608118312AB018B1BAB178B13053002
:1010C000E7008A118A218A15AB1B8B17D10A2828C1
:1010D0000230EE006E186E2888116F28881583166E
:1010E00088118312EE1876280812772808168316BE
:1010F000081283126E197E2888127F28881683169C
:1011000088128312EE198628081387280817831679
:101110000813000083120815831608110330F70026
:10112000F70B902883120811831608118312AB0164
:101130008B1BAB178B130530E7008A118A218A15A8
:10114000AB1B8B17D1015108033C031CC62952303D
:101150005107840083130008D600EB015608EC0009
:1011600083160811081088108312081083160810BF
:101170008815081688160817831288148316881095
:101180000000831208158316081100008312EF0176
:10119000831688150030831288190130EF048316F6
:1011A000081600308312081A0130F7000310F70DFB
:1011B0007708EF048316881600308312881A0130EE
:1011C000F700F70DF70DFC30F7057708EF048316ED
:1011D000081700308312081B0130F700F70DF70DD8
:1011E000F70DF830F7057708EF046F08F800780876
:1011F000EE000811831608110000831208158316EB
:1012000008110229032900008312EF0183168815B3
:101210000030831288190130EF048316081600305D
:101220008312081A0130F7000310F70D7708EF0456
:101230008316881600308312881A0130F700F70DE4
:10124000F70DFC30F7057708EF0483160817003018
:101250008312081B0130F700F70DF70DF70DF8307A
:10126000F7057708EF046F08F8007808ED0008111B
:1012700083160811881108128812081383126E0E43
:10128000F700F030F70577086D04F8007808ED00F6
:10129000ED1F4C298316B828EB08031D51290810AF
:1012A0005229081483160810000083128810831630
:1012B00088100000831208118316081183126C0E27
:1012C000ED000F30ED056D08EE006E1869298811EC
:1012D0006A298815831688118312EE18712908125D
:1012E000722908168316081283126E19792988123A
:1012F0007A298816831688128312EE198129081319
:101300008229081783160813000083120815831614
:1013100008110330F700F70B8B298312081183168D
:10132000081183126C080F39ED006D08EE006E187D
:101330009B2988119C298815831688118312EE1821
:10134000A3290812A42908168316081283126E19FD
:10135000AB298812AC298816831688128312EE19DD
:10136000B3290813B4290817831608130000831241
:101370000815831608110330F700F70BBD298312F7
:101380000811831608118312D10AA3288A150A129C
:10139000642A2C112C088316870083120711AC11C4
:1013A0002C0883168700831287112C122C088316B1
:1013B000870083120712AC122C0883168700831251
:1013C000871251080139013C031DEC292C112C080E
:1013D00083168700831207155108023C0319FC2964
:1013E0005108033C0319FC295108063C0319FC2948
:1013F0005108073C031D022AAC112C0883168700F4
:10140000831287155108033C0318102A5108073C22
:10141000031C102A2C122C0883168700831207162F
:101420005108073C03181A2AAC122C0883168700AF
:10143000831287168A150A12172D03081F39830095
:10144000FF30AC00AE01AD0183161F149F141F15B1
:101450009F1107309C00831301308312AF00B0014D
:10146000B100B201B300B401B500B601B701B800D4
:10147000B900BA00BB00BC01BD018A1175268A15EE
:101480007808053CBE008316011383128B100B16DF
:10149000C0308B04F13083168600FF308700831242
:1014A000AC0083160910891009110910891009115F
:1014B0008312890100308316880088018312880115
:1014C0008316811383120028AB018B1BAB178B1380
:1014D0000130E700E8008A1165208A15AB1B8B17E5
:1014E000A83003178D0005308F000313AB018B1B51
:1014F000AB178B138A1103258A15AB1B8B17AB0116
:101500008B1BAB178B130130E7000230E8008A1108
:1015100065208A15AB1B8B17B23003178D00053081
:101520008F00031009300313D2008A1188268A1510
:101530000A30D2001830D3008A1100278A15AB0177
:101540008B1BAB178B132030E6008A119E218A1566
:10155000AB1B8B17B93003178D0005308F000313B9
:10156000AB018B1BAB178B138A1103258A15AB1BA1
:101570008B172C142C088316870083120718442D10
:101580008A116F278A15F808031D202C8A117526E9
:101590008A15F808031D0F2BAB018B1BAB178B13A0
:1015A0000130E700E8008A1165208A15AB1B8B1714
:1015B000AB018B1BAB178B130C30E6008A119E21FD
:1015C0008A15AB1B8B17C33003178D0005308F00B6
:1015D0000313AB018B1BAB178B138A1103258A15E1
:1015E000AB1B8B17AB018B1BAB178B130130E700C9
:1015F0000230E8008A1165208A15AB1B8B17D030AA
:1016000003178D0005308F000313AB018B1BAB1745
:101610008B138A1103258A15AB1B8B171F2CAB016B
:101620008B1BAB178B130130E700E8008A11652094
:101630008A15AB1B8B17AB018B1BAB178B130C30B5
:10164000E6008A119E218A15AB1B8B17D830031731
:101650008D0005308F000313AB018B1BAB178B1371
:101660008A1103258A15AB1B8B17AB018B1BAB179C
:101670008B130130E7000230E8008A1165208A15DB
:10168000AB1B8B17E63003178D0005308F0003135B
:10169000AB018B1BAB178B138A1103258A15AB1B70
:1016A0008B170C30BF008A1182278A157808BF007B
:1016B0003F080A3C03195F2B3F080B3C0319612BC1
:1016C000532B3F080B3C031DDB2BAB018B1BAB17D4
:1016D0008B130130E700E8008A1165208A15AB1BE7
:1016E0008B17AB018B1BAB178B130C30E6008A11E9
:1016F0009E218A15AB1B8B1739303E07840083135C
:1017000001308000BE0AF63003178D0005308F00CF
:10171000031018300313D2008A1188268A153E0858
:10172000D2001830D3008A1100278A15AB018B1B19
:10173000AB178B132030E6008A119E218A15AB1B54
:101740008B17AB018B1BAB178B132F30E6008A1165
:101750009E218A15AB1B8B17AB018B1BAB178B1311
:101760000130E7000230E8008A1165208A15AB1BC2
:101770008B1701303E02D100053003178D00063073
:101780008F0003100C300313D2008A1188268A15AB
:101790005108D2001830D3008A1100278A150C3066
:1017A00003178D0006308F0003140C300313D20092
:1017B0008A1188268A153F080A3C031D1F2CAB019D
:1017C0008B1BAB178B130130E700E8008A116520F3
:1017D0008A15AB1B8B17AB018B1BAB178B130C3014
:1017E000E6008A119E218A15AB1B8B171330031755
:1017F0008D0006308F000313AB018B1BAB178B13CF
:101800008A1103258A15AB1B8B170430D100AB015D
:101810008B1BAB178B13FA30E7008A118A218A15CC
:10182000AB1B8B17D10B072CAB018B1BAB178B138F
:101830000C30E6008A119E218A15AB1B8B17442DB4
:10184000AB018B1BAB178B130130E700E8008A114B
:1018500065208A15AB1B8B17AB018B1BAB178B134A
:101860000C30E6008A119E218A15AB1B8B178A115A
:101870006F278A157808D100183003178D000630BD
:101880008F0003100C300313D2008A1188268A15AA
:101890005108D2001830D3008A1100278A151F3052
:1018A00003178D0006308F00031408300313D20095
:1018B0008A1188268A15AB018B1BAB178B1301305D
:1018C000E7000230E8008A1165208A15AB1B8B17F0
:1018D000243003178D0006308F000313AB018B1BE0
:1018E000AB178B138A1103258A15AB1B8B17163088
:1018F000C000C100C200C300C400C500C600C700CC
:10190000C800C900CA01CB014B08093C031CB32C19
:101910002F304B07840083138008031DB12C403007
:101920004B078400831301304B0780000F304A07B8
:10193000D100AB018B1BAB178B135108E7000230B2
:10194000E8008A1165208A15AB1B8B1701304B0705
:10195000D100D2001830D3008A1100278A15023036
:10196000CA07CB0A842C0C30CC00CD018A11822707
:101970008A157808CC00093C031CC12CCC08031D37
:10198000C22CB62CCE014E08093C031C1B2D403046
:101990004E07840083134C080002031D192D2F30BD
:1019A0004E078400831301308000AB018B1BAB1703
:1019B0008B138A1159258A15AB1B8B17AB018B1B17
:1019C000AB178B130C30E6008A119E218A15AB1BD6
:1019D0008B17AB018B1BAB178B130130E700E800B3
:1019E0008A1165208A15AB1B8B172C3003178D00CD
:1019F00006308F0003100D300313D2008A118826A1
:101A00008A154C08D2001830D3008A1100278A1595
:101A1000343003178D0006308F0003100730031396
:101A2000D2008A1188268A154C08D100C9290130B4
:101A3000CD00CE0AC32CCD08031D442DAB018B1B5A
:101A4000AB178B130C30E6008A119E218A15AB1B55
:101A50008B17AB018B1BAB178B130130E700E80032
:101A60008A1165208A15AB1B8B17383003178D0040
:101A700006308F000313AB018B1BAB178B138A113E
:101A800003258A15AB1B8B17AC142C088316870013
:101A900083128718732EAB018B1BAB178B130C3083
:101AA000E6008A119E218A15AB1B8B17AB018B1B9D
:101AB000AB178B130130E700E8008A1165208A1507
:101AC000AB1B8B17443003178D0006308F000313B8
:101AD000AB018B1BAB178B138A1103258A15AB1B2C
:101AE0008B17AB018B1BAB178B130130E700023058
:101AF000E8008A1165208A15AB1B8B174A30031743
:101B00008D0006308F000313AB018B1BAB178B13BB
:101B10008A1103258A15AB1B8B170C30CF008A1155
:101B200082278A157808CF00093C031C9A2DCF081C
:101B3000031D9B2D8F2D01304F022F3E84008313F8
:101B40008008031DC92DAB018B1BAB178B130C3009
:101B5000E6008A119E218A15AB1B8B17AB018B1BEC
:101B6000AB178B130130E700E8008A1165208A1556
:101B7000AB1B8B17553003178D0006308F000313F6
:101B8000AB018B1BAB178B138A1103258A15AB1B7B
:101B90008B1701304F022F3E84008313000B732EEE
:101BA00001304F022F3E840083138001AB018B1B59
:101BB000AB178B130C30E6008A119E218A15AB1BE4
:101BC0008B17AB018B1BAB178B130130E700E800C1
:101BD0008A1165208A15AB1B8B175F3003178D00A8
:101BE00006308F000313AB018B1BAB178B138A11CD
:101BF00003258A15AB1B8B17AB018B1BAB178B1304
:101C0000C830E7008A118A218A15AB1B8B17AB01FC
:101C10008B1BAB178B138A1159258A15AB1B8B179E
:101C2000390B732E01304F022F3E84008313013095
:101C30008000D0015008033C031C382E3930500777
:101C4000F800FA010318FA0A7808D1007A08D200DD
:101C500001305007393E840083130008D300780810
:101C6000840083137A18831753088000D00A1A2E31
:101C7000BD01AB018B1BAB178B130C30E6008A1137
:101C80009E218A15AB1B8B17AB018B1BAB178B13DC
:101C90000130E700E8008A1165208A15AB1B8B171D
:101CA000683003178D0006308F000313AB018B1BC8
:101CB000AB178B138A1103258A15AB1B8B17AB014E
:101CC0008B1BAB178B13C830E7008A118A218A154A
:101CD000AB1B8B17AB018B1BAB178B138A115925D1
:0A1CE0008A15AB1B8B17B92A6300AD
:02400E00432F3E
:00000001FF
;PIC16F877A
;CRC=9D46  CREATED="30-ﬂ«‰Ê‰†«·√Ê·-22 18:37"
